:1000000033C000004CC000004AC0000048C00000DF
:1000100046C0000044C0000042C0000040C00000D4
:100020003EC000003DC000003AC0000038C00000E3
:1000300036C0000034C0000032C0000030C00000F4
:100040002EC000002CC000002AC0000028C0000004
:1000500026C0000024C0000022C0000020C0000014
:100060001EC000001CC0000011241FBECFEFD8E04E
:10007000DEBFCDBF11E0A0E0B1E0E0E2F1E002C000
:1000800005900D92A031B107D9F721E0A0E1B1E0D0
:1000900001C01D92A431B207E1F735D03FC0B0CF07
:1000A0001F920F920FB60F9211248F939F93EF938D
:1000B000FF93E0911201F0911301E050FF4F808116
:1000C00085B9E0911201F0911301E05FFE4F80814C
:1000D0008BB98091120190911301019681709078F3
:1000E000992324F401978E6F9F6F019690931301CB
:1000F00080931201FF91EF919F918F910F900FBE0E
:100100000F901F9018957894E0E1F1E0A2E0B1E043
:100110008C91808311968C918183FFCFF894FFCFCF
:10012000FBFD3F065B4F666D7D077F6F6339381CB3
:00000001FF
