:1000000033C0000041C000003FC000003DC0000000
:100010003BC0000039C0000037C0000035C0000000
:1000200033C0000031C000002FC000002DC0000010
:100030002BC000003BC0000027C0000025C000000E
:1000400023C0000021C000001FC000001DC0000030
:100050001BC0000019C0000017C0000015C0000040
:1000600013C0000011C0000011241FBECFEFD8E064
:10007000DEBFCDBF21E0A0E0B1E001C01D92A03005
:10008000B207E1F725D027C0BBCF1092800084E0F3
:100090008093810081E080936F0010928500109220
:1000A000840082E084B98DEF85B908951F920F9284
:1000B0000FB60F9211248F939F9395B182E08927F9
:1000C00085B99F918F910F900FBE0F901F9018953B
:0A00D000DCDF7894FFCFF894FFCF37
:00000001FF
