:1000000033C0000041C000003FC000003DC0000000
:100010003BC0000039C0000037C0000035C0000000
:1000200033C0000031C000002FC000002DC0000010
:100030002BC00000A0C0000027C0000025C00000A9
:100040004FC0000021C000001FC000001DC0000004
:100050001BC000001AC0000017C0000015C000003F
:1000600013C0000011C0000011241FBECFEFD8E064
:10007000DEBFCDBF21E0A0E0B1E001C01D92A43001
:10008000B207E1F76DD0DBC0BBCF1F920F920FB666
:100090000F9211242F935F936F937F938F939F936E
:1000A000AF93BF938091790027E3829FC001112411
:1000B0006FEF70E09DD0709301016093000195B1E6
:1000C00081E0892785B9BF91AF919F918F917F91F1
:1000D0006F915F912F910F900FBE0F901F90189509
:1000E0001F920F920FB60F9211240F900FBE0F9018
:1000F0001F90189582E08AB98CEF8BB983E084B9A0
:1001000080EF85B917B818B881E680937C0084E049
:1001100080937B0098EE90937A0014BC85BD91E0AB
:1001200090936E0016BC1092800080938100909393
:100130006F00109285001092840087E690E0909303
:100140000301809302011092C50080910201809307
:10015000C40088E18093C1008EE08093C2000895BE
:10016000C9DF7894FFCFE0ECF0E0908195FFFDCF00
:100170008093C60008951F920F920FB60F9211241C
:100180002F933F934F935F936F937F938F939F939F
:10019000AF93BF93CF93DF93EF93FF9380910001D1
:1001A00090910101CAE0D0E0BE0122D080E3860F29
:1001B000DADF8091000190910101BE0119D0805DCC
:1001C000D2DF95B181E0892785B9FF91EF91DF9169
:1001D000CF91BF91AF919F918F917F916F915F91DF
:1001E0004F913F912F910F900FBE0F901F90189538
:1001F00097FB072E16F4009406D077FD08D00BD09D
:1002000007FC05D03EF4909581959F4F0895709519
:1002100061957F4F0895AA1BBB1B51E107C0AA1F20
:10022000BB1FA617B70710F0A61BB70B881F991F97
:100230005A95A9F780959095BC01CD010895F89441
:02024000FFCFEE
:00000001FF
