:1000000033C000004CC000004AC0000048C00000DF
:1000100047C0000044C0000042C0000040C00000D3
:100020003EC000003CC000003AC0000038C00000E4
:1000300036C0000095C0000032C0000030C0000093
:1000400043C000002CC000002AC0000028C00000EF
:1000500026C000009CC1000022C0000020C000009B
:100060001EC000001CC0000011241FBECFEFD8E04E
:10007000DEBFCDBF11E0A0E0B1E0E8E9F4E002C0EE
:1000800005900D92A432B107D9F721E0A4E2B1E0C6
:1000900001C01D92A034B207E1F7D1D1FBC1B0CFAE
:1000A0001F920F920FB60F9211248F939F9386B1D8
:1000B00090E090933901809338019F918F910F9038
:1000C0000FBE0F901F9018951F920F920FB60F92B0
:1000D00011242F933F935F936F937F938F939F93FD
:1000E000AF93BF93EF93FF9320913A0130913B017F
:1000F00080913C0190913D01FC01E35FFE4F232B79
:1001000011F4808101C0828188B9E0913C01F091B5
:100110003D01E25CFE4F80818BB980913601909168
:100120003701892B09F45F9A80913C0190913D0140
:10013000019662E070E087D190933D0180933C018D
:10014000FF91EF91BF91AF919F918F917F916F91AF
:100150005F913F912F910F900FBE0F901F901895B8
:100160001F920F920FB60F9211242F933F934F932C
:100170005F936F937F938F939F93AF93BF93EF930F
:10018000FF9380913A0190913B01009721F00197F4
:1001900009F4A6C0EBC08091360190913701009719
:1001A00021F0019709F46BC0E1C0E0913201F091B8
:1001B0003301EF5EFE4F828580933E0183858093FD
:1001C0003F0180E88BB98091320190913301029612
:1001D00024E030E0B90137D19093330180933201AC
:1001E000E0912C01F0912D01E050FF4F808185B905
:1001F00080912C0190912D01FC01EE0FFF1FEB5F10
:10020000FE4F6081718140912E0150912F01461760
:1002100057075CF10196B90116D190932D01809397
:100220002C0110922F0110922E018091300190919B
:100230003101892B51F081E090E090933701809358
:100240003601109231011092300180912A01909173
:100250002B01892B51F081E090E090933101809344
:10026000300110922B0110922A0180912E01909161
:100270002F01019690932F0180932E0177C08091DA
:10028000040185B980913401909135016AE070E0F4
:10029000DAD0FB01EF5EFE4F208120933E01FC018E
:1002A000EF5EFE4F808180933F011BB88091340147
:1002B000909135018A3091056CF0109235011092C1
:1002C00034011092370110923601109233011092CE
:1002D00032014CC00196909335018093340146C0A1
:1002E00080912401909125018130910599F01CF4B1
:1002F000892BD1F02FC082309105B1F0039751F5D1
:100300008091210180933E018091220180933F01E1
:1003100080EE1EC080911F0180933E0180912001DC
:1003200080933F0181EE14C08091260190912701B6
:100330006AE070E088D0FB01EF5EFE4F20812093E1
:100340003E01FC01EF5EFE4F808180933F0102C0C1
:1003500080937C008091240190912501019664E0B6
:1003600070E071D09093250180932401FF91EF916B
:10037000BF91AF919F918F917F916F915F914F91BD
:100380003F912F910F900FBE0F901F9018951F92C5
:100390000F920FB60F9211242F935F936F937F9359
:1003A0008F939F93AF93BF938091790023E6829FB1
:1003B000C00111246FEF70E046D070932901609363
:1003C0002801BF91AF919F918F917F916F915F9124
:1003D0002F910F900FBE0F901F90189510923B0118
:1003E00010923A0114BC84E085BD91E090936E00B8
:1003F00016BC109280008093810090936F00109241
:100400008500109284009FEF9AB992E09093680063
:1004100097E09BBB90E390936C0090EE90937C00F0
:1004200080937B0088EE80937A0008958FE384B9EF
:1004300015B88CE087B980910D0188B90895CEDF99
:10044000F5DF7894FFCF97FB072E16F4009406D0C3
:1004500077FD08D00BD007FC05D03EF49095819530
:100460009F4F0895709561957F4F0895AA1BBB1B00
:1004700051E107C0AA1FBB1FA617B70710F0A61BA4
:10048000B70B881F991F5A95A9F780959095BC01C5
:08049000CD010895F894FFCF9F
:100498000C0A21110905000500050005003438245F
:1004A800283F065B4F666D7D077F677377507963DA
:0404B80039381C00B3
:00000001FF
