:100000000C943E000C945B000C945B000C945B0021
:100010000C945B000C945B000C945B000C945B00F4
:100020000C945B000C945B000C945D000C945B00E2
:100030000C945B000C94DE000C945B000C945B0051
:100040000C945B000C945B000C945B000C945B00C4
:100050000C945B000C945B000C945B000C945B00B4
:100060000C945B000C945B009D00A100A600AB000B
:10007000B000B500BA00BF00C400C90011241FBE03
:10008000CFEFD8E0DEBFCDBF11E0A0E0B1E0EAE302
:10009000F2E002C005900D92AA30B107D9F721E035
:1000A000AAE0B1E001C01D92AC30B207E1F70E94B6
:1000B000F0000C941B010C9400001F920F920FB6DD
:1000C0000F9211242F933F934F935F936F937F93DE
:1000D0008F939F93AF93BF93EF93FF9340918600CD
:1000E000509187009A01ADECBCEC0E940C019695F2
:1000F000879596958795969587959C01220F331F36
:10010000880F991F880F991F880F991F820F931FBF
:10011000481B590B50930B0140930A0195B182E0A3
:10012000892785B9E0910A01F0910B01EA30F105C8
:10013000A0F5EC5CFF4F0C940601809100018BB997
:100140002CC0809101018BB92B9827C080910201AE
:100150008BB92B9A22C0809103018BB92B9A1DC0B9
:10016000809104018BB92B9A18C0809105018BB93D
:100170002B9A13C08091060185B95B9A0EC08091BD
:1001800007018BB92B9809C0809108018BB92B9A74
:1001900004C0809109018BB92B9AFF91EF91BF9117
:1001A000AF919F918F917F916F915F914F913F910F
:1001B0002F910F900FBE0F901F9018951F920F92C6
:1001C0000FB60F9211248F939F9395B180E28927E8
:1001D00085B99F918F910F900FBE0F901F9018952A
:1001E00082E287B98AE284B98DED88B98FE98AB94C
:1001F000109285001092840093E09093810091E228
:1002000090936F008BB92B987894FFCFEE0FFF1F60
:100210000590F491E02D0994A29FB001B39FC00115
:10022000A39F700D811D1124911DB29F700D811D22
:0A0230001124911D0895F894FFCFEA
:0A023A009F061B0F868D9D079F8F06
:00000001FF
