S01300007573616E646F55534152542E73726563F8
S113000033C0000041C000003FC000003DC00000FC
S11300103BC0000039C0000037C0000035C00000FC
S113002033C0000031C000002FC000002DC000000C
S11300302BC0000029C0000027C0000025C000001C
S113004023C0000021C000001FC000001DC000002C
S11300501BC0000019C0000017C0000015C000003C
S113006013C0000011C0000011241FBECFEFD8E060
S1130070DEBFCDBF21E0A0E0B1E001C01D92A230FF
S1130080B207E1F720D024C0BBCF82E08AB98CEF5D
S11300908BB914BC84E085BD81E080936E0016BCEE
S11300A087E690E090930101809300011092C500CF
S11300B0809100018093C40088E18093C1008EE0A8
S11300C08093C2000895E1DF789480E090E0089581
S10700D0F894FFCFCE
S9030000FC
