:1000000033C0000039C0000037C0000035C0000018
:1000100033C0000031C000002FC000002DC0000020
:100020002BC0000029C0000027C0000025C0000030
:1000300023C0000035C000001FC000001DC000002C
:100040001BC0000019C0000017C0000015C0000050
:1000500013C0000011C000000FC000000DC0000060
:100060000BC0000009C0000011241FBECFEFD8E074
:10007000DEBFCDBF27D029C0C3CF1092800085E05E
:100080008093810081E080936F0087EF92EC9093E2
:1000900085008093840082E084B98DEF85B908954E
:1000A0001F920F920FB60F9211248F939F9395B1C9
:1000B00082E0892785B99F918F910F900FBE0F9095
:0E00C0001F901895DADF7894FFCFF894FFCFE9
:00000001FF
