:1000000033C0000041C000003FC000003DC0000000
:100010003BC0000039C0000037C0000035C0000000
:1000200033C0000031C000002FC000002DC0000010
:100030002BC000002AC0000027C0000025C000001F
:1000400023C0000021C000001FC000001DC0000030
:100050001BC0000019C0000017C0000015C0000040
:1000600013C0000011C0000011241FBECFEFD8E064
:10007000DEBFCDBF21E0A0E0B1E001C01D92A23003
:10008000B207E1F75CD05EC0BBCF1F920F920FB6F4
:100090000F9211248F939F93809100019091010101
:1000A0008130910561F01CF4892B39F010C0823049
:1000B000910541F0039749F00AC017BC08C085EDCF
:1000C00087BD05C08AEF87BD02C08FEF87BD8091D5
:1000D000000190910101019683709078992324F496
:1000E00001978C6F9F6F019690930101809300019F
:1000F0009BB184E089278BB99F918F910F900FBEA0
:100100000F901F90189583EC84BD81E085BD1092FF
:100110006E009FEF97BD1092B2001092800094E0A5
:100120009093810080936F008CED9BE0909385000D
:100130008093840084E48AB98BEB8BB90895E3DF64
:080140007894FFCFF894FFCF83
:00000001FF
