:1000000033C000004CC000004AC0000048C00000DF
:1000100046C0000044C0000042C0000040C00000D4
:100020003EC000003CC000003AC0000038C00000E4
:1000300036C0000094C0000032C0000030C0000094
:100040002FC000002CC000002AC0000028C0000003
:1000500026C000005DC0000022C0000020C00000DB
:100060001EC000001CC0000011241FBECFEFD8E04E
:10007000DEBFCDBF11E0A0E0B1E0EAEDF2E002C0EA
:1000800005900D92A031B107D9F721E0A0E1B1E0D0
:1000900001C01D92AA31B207E1F7EDD01CC1B0CF6B
:1000A0001F920F920FB60F9211245F936F937F935D
:1000B0008F939F93AF93BF93EF93FF93E0911601BC
:1000C000F0911701E050FF4F808188B9E09116014F
:1000D000F0911701E85EFE4F80818BB98091160187
:1000E00090911701019662E070E0CED090931701D5
:1000F00080931601FF91EF91BF91AF919F918F91E6
:100100007F916F915F910F900FBE0F901F90189588
:100110001F920F920FB60F9211242F935F936F933C
:100120007F938F939F93AF93BF938091790022E346
:10013000829FC00111246FEF70E0A6D0709313016D
:1001400060931201BF91AF919F918F917F916F91B9
:100150005F912F910F900FBE0F901F9018951F92D7
:100160000F920FB60F9211242F933F935F936F93CB
:100170007F938F939F93AF93BF93EF93FF93809160
:10018000120190911301909311018093100120911D
:1001900014013091150121303105A1F01CF4232BFD
:1001A000D9F02CC022303105B9F02330310531F5BA
:1001B00080910E018093180180910F0180931901A5
:1001C00080EE1AC080910C018093180180910D017E
:1001D0008093190181EE10C06AE070E055D0FB01F8
:1001E000EE5FFE4F208120931801FC01EE5FFE4F71
:1001F00080818093190102C080937C00809114015A
:1002000090911501019664E070E03ED09093150145
:1002100080931401FF91EF91BF91AF919F918F91C6
:100220007F916F915F913F912F910F900FBE0F9033
:100230001F9018958FE78AB91BB88CE087B984E3C3
:1002400088B980E280937C0084E080937B0098EE04
:1002500090937A0014BC85BD16BC91E090936E001B
:10026000109280008093810010928500109284008B
:1002700090936F000895DEDF78948091020180935F
:10028000180180931901FFCF97FB072E16F40094F5
:1002900006D077FD08D00BD007FC05D03EF4909532
:1002A00081959F4F0895709561957F4F0895AA1B82
:1002B000BB1B51E107C0AA1FBB1FA617B70710F051
:1002C000A61BB70B881F991F5A95A9F78095909583
:0A02D000BC01CD010895F894FFCFA2
:1002DA00F4F83F065B4F666D7D077F6F6339381C04
:00000001FF
