:1000000033C000004CC000004AC0000048C00000DF
:1000100046C0000044C0000042C0000040C00000D4
:100020003EC00000C1C000003AC0000038C000005F
:1000300036C000005BC0000032C0000030C00000CD
:100040002FC000002CC000002AC0000028C0000003
:1000500026C0000024C0000022C0000020C0000014
:100060001EC000001CC0000011241FBECFEFD8E04E
:10007000DEBFCDBF11E0A0E0B1E0EEEAF2E002C0E9
:1000800005900D92A031B107D9F721E0A0E1B1E0D0
:1000900001C01D92AA31B207E1F7DDD006C1B0CF91
:1000A0001F920F920FB60F9211248F939F938091FE
:1000B0001001909111018830910564F010921101A6
:1000C000109210018091790090E090931301809339
:1000D000120105C0019690931101809310019F9128
:1000E0008F910F900FBE0F901F9018951F920F9237
:1000F0000FB60F9211242F933F934F935F936F93FB
:100100007F938F939F93AF93BF93CF93DF93EF939F
:10011000FF9320911401309115012115310521F033
:1001200021303105A9F01FC0809112019091130177
:10013000C8E1D1E06AE070E091D0FB01E050FF4FF0
:1001400040814883FC01E050FF4F808189830BC0D0
:10015000E8E1F1E0A0E0B1E01A968C911A97808373
:100160001B968C918183C9010196817090789923A7
:1001700024F401978E6F9F6F0196909315018093E1
:100180001401FF91EF91DF91CF91BF91AF919F91BA
:100190008F917F916F915F914F913F912F910F9030
:1001A0000FBE0F901F9018951F920F920FB60F92CF
:1001B00011248F939F93EF93FF93E0911601F09199
:1001C0001701E25FFE4F808185B9E0911601F09141
:1001D0001701E85EFE4F80818BB9809116019091E6
:1001E0001701019681709078992324F401978E6FFE
:1001F0009F6F01969093170180931601FF91EF91E5
:100200009F918F910F900FBE0F901F90189514BC67
:1002100084E085BD91E090936E0016BC1092800042
:100220008093810090936F002CED3BE0309385002C
:10023000209384001092B0008093B10090937000DE
:100240001092B20090EE90937C0080937B0088EE39
:1002500080937A000895DBDF7894FFCF97FB072E19
:1002600016F4009406D077FD08D00BD007FC05D01B
:100270003EF4909581959F4F0895709561957F4FBD
:100280000895AA1BBB1B51E107C0AA1FBB1FA617DD
:10029000B70710F0A61BB70B881F991F5A95A9F72F
:0E02A00080959095BC01CD010895F894FFCF94
:1002AE003F065B4F666D7D077F6773775079FBFD69
:00000001FF
