S01100005072617469636120342E73726563FB
S113000058C0000066C0000064C0000062C0000068
S113001060C000005EC000005CC000005AC0000068
S113002058C0000056C0000054C0000052C0000078
S113003050C000004EC000004CC000004AC0000088
S113004049C0000046C0000044C0000042C0000097
S113005040C000005DC000003CC000003AC0000089
S113006038C0000036C000003901350137013801BD
S11300703A013A013A013A013A013A013A013A01A4
S11300803A013A013A013A013A01250129012D01C7
S11300903A013A013A013A013A013A013A013A0184
S11300A01A013A013A013A013A013A013A013A0194
S11300B0310111241FBECFEFD8E0DEBFCDBF21E058
S11300C0A0E0B1E001C01D92AA30B207E1F79AD0D6
S11300D0DAC096CF1F920F920FB60F9211248F930E
S11300E09F93EF93FF938091000190910101892BDD
S11300F031F0ECE7F0E0908181E089278083FF9183
S1130100EF919F918F910F900FBE0F901F901895B4
S11301101F920F920FB60F9211242F933F938F9338
S11301209F93EF93FF93809102019091030120919B
S11301307900FC01EE0FFF1FEA5FFE4F30E03183D0
S11301402083019681709078992324F401978E6F0F
S11301509F6F01969093030180930201FF91EF91A9
S11301609F918F913F912F910F900FBE0F901F90F1
S1130170189582E08AB98CEF8BB98FE084B980E35B
S113018085B917B88CE388B980E280937C0084E059
S113019080937B0098EF90937A0014BC85BD81E036
S11301A080936E0016BC93EC9093B0008093B100E2
S11301B0109270008FEF8093B3001092B20087E624
S11301C090E090930501809304011092C500809102
S11301D004018093C40088E18093C1008EE0809381
S11301E0C2000895E0ECF0E0908195FFFDCF80938C
S11301F0C6000895E0ECF0E080818823ECF780915C
S1130200C6000895B6DF7894C3EBD0E0FF24FA94D7
S11302100F2EF5EDAF2EF02D0F2EFAEFBF2EF02D91
S113022006E011E06894CC24C2F86894DD24D1F887
S1130230EE24E394DFDF482F50E0FA01F097E53233
S1130240F105C0F4EC5CFF4F18C085B18E2585B96B
S1130250F1CF85B18D2585B9EDCF85B18C2585B9D3
S1130260E9CFF8018081BEDFE5CFB882E3CFA88271
S11302701882F8828F5FB6DFDDCFEE0FFF1F059087
S10D0280F491E02D0994F894FFCFE7
S9030000FC
