:1000000033C0000041C000003FC000003DC0000000
:100010003BC0000039C0000037C0000035C0000000
:1000200033C0000031C000002FC000002DC0000010
:100030002BC0000058C0000027C0000025C00000F1
:1000400024C0000021C000001FC000001DC000002F
:100050001BC0000019C0000017C0000015C0000040
:1000600013C0000011C0000011241FBECFEFD8E064
:10007000DEBFCDBF21E0A0E0B1E001C01D92A23003
:10008000B207E1F760D062C0BBCF1F920F920FB6EC
:100090000F9211248F939F93809100019091010101
:1000A000892B29F48BEF85B986E08BB904C08DEFDD
:1000B00085B98FEB8BB98091000190910101019678
:1000C00081709078992324F401978E6F9F6F019629
:1000D00090930101809300019F918F910F900FBE2B
:1000E0000F901F9018951F920F920FB60F92112428
:1000F0008F939F9398B181E0892788B99F918F91C1
:100100000F900FBE0F901F90189514BC94E095BDF2
:1001100081E080936E0016BC109280009093810065
:1001200080936F002CED3BE030938500209384009A
:100130009FEF9AB91BB896E094B999EF95B987B932
:100140008EEF88B90895E1DF7894FFCFF894FFCF60
:00000001FF
