:1000000033C000004CC000004AC0000048C00000DF
:1000100047C0000044C0000042C0000040C00000D3
:100020003EC000003CC000003AC0000038C00000E4
:1000300036C00000B7C0000032C0000030C0000071
:1000400064C000002CC000002AC0000028C00000CE
:1000500026C00000EBC1000022C0000020C000004C
:100060001EC000001CC0000011241FBECFEFD8E04E
:10007000DEBFCDBF11E0A0E0B1E0ECE0F5E002C0F2
:1000800005900D92A432B107D9F721E0A4E2B1E0C6
:1000900001C01D92A034B207E1F709D235C2B0CF3A
:1000A0001F920F920FB60F9211242F933F938F93AD
:1000B0009F93EF93FF938091380190913901892BA1
:1000C000C9F480912E0190912F019C012D7F232B4B
:1000D00089F421E030E030932D0120932C01880F2A
:1000E000991FFC01EB5FFE4F80819181909331015C
:1000F00080933001FF91EF919F918F913F912F91CC
:100100000F900FBE0F901F9018951F920F920FB671
:100110000F9211248F939F93EF93FF9380913A0155
:1001200090913B01892B41F4E0913C01F0913D011C
:10013000E35FFE4F808107C0E0913C01F0913D01FB
:10014000E35FFE4F828188B987E090E090932B01B6
:1001500080932A01E0913C01F0913D01E25CFE4F69
:1001600080818BB980912A018795882787958BB9E3
:1001700080913C0190913D01019681709078992386
:1001800024F401978E6F9F6F019690933D018093A9
:100190003C01FF91EF919F918F910F900FBE0F90B7
:1001A0001F9018951F920F920FB60F9211242F9344
:1001B0003F934F935F936F937F938F939F93AF93EF
:1001C000BF93CF93DF93EF93FF9380913A01909188
:1001D0003B01009721F0019709F4AAC014C1809156
:1001E000380190913901009721F0019709F46FC00F
:1001F0000AC1E0913401F0913501AEE3B1E0EF5E68
:10020000FE4F82858C93838511968C9380E88BB901
:1002100080913401909135010296837090789923F2
:1002200024F401978C6F9F6F019690933501809312
:100230003401E0912E01F0912F01E050FF4F8081B9
:1002400085B980912E0190912F01FC01EE0FFF1FC7
:10025000EB5FFE4F4081518120913001309131019F
:10026000241735070CF4CFC001968370907899233A
:1002700024F401978C6F9F6F019690932F018093C8
:100280002E01109231011092300180913201909133
:100290003301892B51F081E090E0909339018093F4
:1002A0003801109233011092320180912C0190910B
:1002B0002D01892B09F4A7C081E090E090933301D0
:1002C0008093320110922D0110922C019CC08091DC
:1002D000040185B98091360190913701CEE3D1E0D8
:1002E0006AE070E0EAD0FB01EF5EFE4F20812883D8
:1002F000FC01EF5EFE4F808189831BB8809136013F
:10030000909137018E3191056CF010923701109267
:100310003601109239011092380110923501109275
:10032000340171C0019690933701809336016BC000
:10033000809128019091290164E670E0BED08093FD
:10034000260190932701209124013091250121302D
:100350003105D9F01CF4232B41F044C02230310583
:1003600019F12330310581F13DC0CEE3D1E06AE0DF
:1003700070E0A3D0FB01EF5EFE4F20812883FC01DB
:10038000EF5EFE4F808189832DC0EEE3F1E0A1E1B5
:10039000B1E01E968C911E9780831F968C9181836D
:1003A00081EE80937C001EC0CEE3D1E06AE070E075
:1003B00084D0FB01EF5EFE4F20812883FC01EF5EBD
:1003C000FE4F808189830EC0EEE3F1E0A1E1B1E050
:1003D00050968C915097808351968C91818380EEBA
:1003E00080937C0080912401909125010196837077
:1003F0009078992324F401978C6F9F6F01969093C6
:10040000250180932401FF91EF91DF91CF91BF915E
:10041000AF919F918F917F916F915F914F913F919C
:100420002F910F900FBE0F901F9018951F920F9253
:100430000FB60F9211248F939F938091790090E0D3
:1004400090932901809328019F918F910F900FBE67
:100450000F901F90189514BC94E095BD81E0809397
:100460006E0016BC109280009093810080936F0004
:100470008CED9BE090938500809384008FEF8AB988
:100480001BB882E08093680080E380936C0008953D
:1004900010927A008FE384B915B88CE087B980E3B5
:1004A00088B9809148018BB980E88BB90895D3DF72
:1004B000EFDF789480E090E0089597FB072E16F424
:1004C000009406D077FD08D00BD007FC05D03EF491
:1004D000909581959F4F0895709561957F4F0895F0
:1004E000AA1BBB1B51E107C0AA1FBB1FA617B7075A
:1004F00010F0A61BB70B881F991F5A95A9F7809576
:0C0500009095BC01CD010895F894FFCF48
:10050C000C0A211109140005000F000500343824D1
:10051C00283F065B4F666D7D077F67737750796365
:04052C0039381C003E
:00000001FF
