:1000000033C0000041C000003FC000003DC0000000
:100010003BC0000039C0000037C0000035C0000000
:1000200033C0000031C000002FC000002DC0000010
:100030002BC0000029C0000027C0000025C0000020
:1000400024C0000021C000001FC000001DC000002F
:100050001BC000003EC0000017C0000015C000001B
:1000600013C0000011C0000011241FBECFEFD8E064
:10007000DEBFCDBF21E0A0E0B1E001C01D92AA30FB
:10008000B207E1F79ED030C1BBCF1F920F920FB6DF
:100090000F9211245F936F937F938F939F93AF93EE
:1000A000BF938091000190910101019664E070E09E
:1000B000F4D09093010180930001BF91AF919F9183
:1000C0008F917F916F915F910F900FBE0F901F9056
:1000D00018951F920F920FB60F9211242F935F93D2
:1000E0006F937F938F939F93AF93BF93EF93FF9300
:1000F00080917900E0910201F0910301EE0FFF1F62
:10010000EA5FFE4F23E6829FC00111246FEF70E08B
:10011000C4D071836083FF91EF91BF91AF919F91A4
:100120008F917F916F915F912F910F900FBE0F90E4
:100130001F90189582E08AB98CEF8BB98FE084B953
:1001400080E385B917B88CE388B981E280937C009D
:1001500084E080937B0098EE90937A0014BC85BD78
:1001600081E080936E0016BC93EC9093B000809376
:10017000B100109270008FEF8093B3001092B20024
:1001800087E690E090930501809304011092C500EA
:10019000809104018093C40088E18093C1008EE0C7
:1001A0008093C20008959091C00095FFFCCF80938A
:1001B000C60008958091C00087FFFCCF8091C600E3
:1001C0000895B8DF789411E004E082E0F82ECAE0E8
:1001D000D0E09AEFE92E25EDD22ECC24CA94EADFA6
:1001E000813489F198F4813309F44EC030F48033BE
:1001F00009F050C0C092B300F2CF823309F447C077
:10020000833309F047C01092B300E9CF833411F172
:10021000E8F08C3411F1843509F03CC0809106017E
:1002200090910701BE0139D080E3860FBCDF809139
:10023000060190910701BE0130D0805DB4DF87EAEE
:10024000B2DF83E41EC085B1812702C085B18F254E
:1002500085B9C5CF85B18027FBCF809108019091EA
:100260000901BE011AD080E3860F9DDF809108014D
:1002700090910901BE0111D0805D95DF8CE493DF80
:1002800085E791DF8DE007C0E092B300A8CFD09260
:10029000B300A5CF8F5F87DFA2CF97FB072E16F4A1
:1002A000009406D077FD08D00BD007FC05D03EF4B3
:1002B000909581959F4F0895709561957F4F089512
:1002C000AA1BBB1B51E107C0AA1FBB1FA617B7077C
:1002D00010F0A61BB70B881F991F5A95A9F7809598
:0C02E0009095BC01CD010895F894FFCF6B
:00000001FF
