:100000000C943E000C945B000C945B000C945B0021
:100010000C945B000C945B000C945B000C945B00F4
:100020000C945B000C945B000C945D000C945B00E2
:100030000C945B000C94B6000C945B000C945B0079
:100040000C945B000C945B000C945B000C945B00C4
:100050000C945B000C945B000C945B000C945B00B4
:100060000C945B000C945B00860089008C008F0070
:100070009200950098009C00A100A40011241FBECE
:10008000CFEFD8E0DEBFCDBF11E0A0E0B1E0E2EFFE
:10009000F1E002C005900D92AA30B107D9F721E036
:1000A000AAE0B1E001C01D92AC30B207E1F70E94B6
:1000B000C8000C94F7000C9400001F920F920FB62A
:1000C0000F9211245F936F937F938F939F93AF93BE
:1000D000BF93EF93FF9380918600909187006AE031
:1000E00070E00E94DD0090930B0180930A0195B1AE
:1000F00082E0892785B9E0910A01F0910B01EA308D
:10010000F10530F5EC5CFF4F0C94F100809100019B
:1001100015C08091010112C08091020117C0809129
:10012000030114C08091040111C0809105010EC02B
:100130008091060185B90BC0809107018BB95E984B
:1001400007C08091080102C0809109018BB95E9AB5
:10015000FF91EF91BF91AF919F918F917F916F919F
:100160005F910F900FBE0F901F9018951F920F92E6
:100170000FB60F9211248F939F9395B180E2892738
:1001800085B99F918F910F900FBE0F901F9018957A
:1001900082E284B98DED85B91092850010928400B9
:1001A00083E08093810081E280936F008FEF8AB9B2
:1001B0008FE38BB95E987894FFCFAA1BBB1B51E1EC
:1001C00007C0AA1FBB1FA617B70710F0A61BB70BC7
:1001D000881F991F5A95A9F780959095BC01CD016C
:1001E0000895EE0FFF1F0590F491E02D0994F89407
:0201F000FFCF3F
:0A01F2003F065B4F666D7D077F6FCF
:00000001FF
