:1000000033C000004CC000004AC0000048C00000DF
:1000100046C0000044C0000042C0000040C00000D4
:100020003EC000008BC000006EC0000038C0000061
:1000300036C0000034C0000032C0000030C00000F4
:100040002FC000002CC000002AC0000028C0000003
:1000500026C0000024C0000022C0000020C0000014
:100060001EC000001CC0000011241FBECFEFD8E04E
:10007000DEBFCDBF11E0A0E0B1E0EAE7F3E002C0EF
:1000800005900D92AE31B107D9F721E0AEE1B1E0B4
:1000900001C01D92AE32B207E1F743D16CC1B0CFBF
:1000A0001F920F920FB60F9211248F939F93EF938D
:1000B000FF93E0912801F0912901E050FF4F8081EA
:1000C00085B9E0912801F0912901E45DFE4F80811E
:1000D0008BB98091280190912901019681709078C7
:1000E000992324F401978E6F9F6F019690932901B5
:1000F00080932801FF91EF919F918F910F900FBEF8
:100100000F901F9018951F920F920FB60F92112407
:100110008F939F9380912001909121018D7F892B56
:1001200031F481E090E090932301809322019F912C
:100130008F910F900FBE0F901F9018951F920F92E6
:100140000FB60F9211242F933F934F935F936F93AA
:100150007F938F939F93AF93BF93CF93DF93EF934F
:10016000FF9380912A0190912B018D33910534F4F6
:10017000019690932B0180932A0189C080912601DA
:1001800090912701892B09F04DC080912401909115
:100190002501029683709078992324F401978C6F3F
:1001A0009F6F01969093250180932401ACE2B1E00A
:1001B000FC01E15FFE4F82858C93838511968C93C1
:1001C00020911E0130911F012F5F3F4F30931F017F
:1001D00020931E018091200190912101FC01EE0FDE
:1001E000FF1FEE5FFE4F40815181241735078CF0D1
:1001F000019683709078992324F401978C6F9F6FF8
:100200000196909321018093200110921F0110927A
:100210001E01E0912001F0912101E65FFE4F8081F7
:1002200088B92DC080910E018BB92B9820911E01A9
:1002300030911F01CCE2D1E0C9016AE070E074D0D6
:10024000FB01E15FFE4F40814883FC01E15FFE4F0F
:10025000808189832F5F3F4F2F3131052CF43093FC
:100260001F0120931E010BC010921F0110921E014E
:10027000109227011092260185B1896085B91092EC
:100280002B0110922A011092230110922201FF915A
:10029000EF91DF91CF91BF91AF919F918F917F911E
:1002A0006F915F914F913F912F910F900FBE0F90E3
:1002B0001F9018958FE387B98FE084B98FE78AB9CB
:1002C00081EF85B98091000185B980910A0188B9D3
:1002D000ECE2F1E080818BB9AFE0B1E01A968C914D
:1002E0001A9780831B968C91818314BC84E085BD12
:1002F00016BC81E080936E001092850010928400FD
:1003000093E09093810091E290936F001092B0007F
:1003100097E09093B1001092B2008093700013BCEC
:100320000895C8DF7894FFCF97FB072E16F400944A
:1003300006D077FD08D00BD007FC05D03EF4909591
:1003400081959F4F0895709561957F4F0895AA1BE1
:10035000BB1B51E107C0AA1FBB1FA617B70710F0B0
:10036000A61BB70B881F991F5A95A9F780959095E2
:0A037000BC01CD010895F894FFCF01
:10037A00FBFD05000200060002000C0A2111093FDC
:0E038A00065B4F666D7D077F677377507900C5
:00000001FF
